{
	"data": {
		"bytecode": {
			"linkReferences": {},
			"object": "60806040526040518060400160405280601a81526020017f4142434445464748494a4b4c4d4e4f505152535455565758595a00000000000081525060009080519060200190620000519291906200006b565b50601a6001553480156200006457600080fd5b5062000180565b82805462000079906200011b565b90600052602060002090601f0160209004810192826200009d5760008555620000e9565b82601f10620000b857805160ff1916838001178555620000e9565b82800160010185558215620000e9579182015b82811115620000e8578251825591602001919060010190620000cb565b5b509050620000f89190620000fc565b5090565b5b8082111562000117576000816000905550600101620000fd565b5090565b600060028204905060018216806200013457607f821691505b602082108114156200014b576200014a62000151565b5b50919050565b7f4e487b7100000000000000000000000000000000000000000000000000000000600052602260045260246000fd5b610ec580620001906000396000f3fe608060405234801561001057600080fd5b506004361061007d5760003560e01c8063681192711161005b5780636811927114610112578063a5998bfb14610142578063b745a3d814610172578063c5337ed4146101a25761007d565b806322b8d0441461008257806353ba1106146100b257806356e4024a146100e2575b600080fd5b61009c600480360381019061009791906107d9565b6101c0565b6040516100a99190610a09565b60405180910390f35b6100cc60048036038101906100c79190610822565b6101f3565b6040516100d991906109e7565b60405180910390f35b6100fc60048036038101906100f791906106f6565b610256565b6040516101099190610a09565b60405180910390f35b61012c60048036038101906101279190610743565b6102c5565b60405161013991906109e7565b60405180910390f35b61015c600480360381019061015791906107d9565b6102d5565b60405161016991906109c5565b60405180910390f35b61018c6004803603810190610187919061078c565b6102e5565b6040516101999190610a09565b60405180910390f35b6101aa6103b0565b6040516101b79190610a09565b60405180910390f35b6000816040516020016101d3919061095e565b6040516020818303038152906040528051906020012060001c9050919050565b6060600061022983610204866103f4565b604051602001610215929190610975565b6040516020818303038152906040526101c0565b905060006001548261023b9190610d45565b90506000610248826103f4565b905080935050505092915050565b600080838360009060019261026d93929190610aee565b8080601f016020809104026020016040519081016040528093929190818152602001838380828437600081840152601f19601f8201169050808301925050505050505090506000848490509050809250505092915050565b6060600082905080915050919050565b6060600082905080915050919050565b60008083836000906001926102fc93929190610b29565b8080601f016020809104026020016040519081016040528093929190818152602001838380828437600081840152601f19601f8201169050808301925050505050505090506000848460019060029261035793929190610b29565b8080601f016020809104026020016040519081016040528093929190818152602001838380828437600081840152601f19601f820116905080830192505050505050509050600085859050905080935050505092915050565b600080606442336040516020016103c8929190610999565b6040516020818303038152906040528051906020012060001c6103eb9190610d45565b90508091505090565b6060600082141561043c576040518060400160405280600181526020017f30000000000000000000000000000000000000000000000000000000000000008152509050610550565b600082905060005b6000821461046e57808061045790610cce565b915050600a826104679190610bba565b9150610444565b60008167ffffffffffffffff81111561048a57610489610e03565b5b6040519080825280601f01601f1916602001820160405280156104bc5781602001600182028036833780820191505090505b5090505b60008514610549576001826104d59190610beb565b9150600a856104e49190610d45565b60306104f09190610b64565b60f81b81838151811061050657610505610dd4565b5b60200101907effffffffffffffffffffffffffffffffffffffffffffffffffffffffffffff1916908160001a905350600a856105429190610bba565b94506104c0565b8093505050505b919050565b600061056861056384610a49565b610a24565b90508281526020810184848401111561058457610583610e4b565b5b61058f848285610c5b565b509392505050565b60006105aa6105a584610a7a565b610a24565b9050828152602081018484840111156105c6576105c5610e4b565b5b6105d1848285610c5b565b509392505050565b60008083601f8401126105ef576105ee610e37565b5b8235905067ffffffffffffffff81111561060c5761060b610e32565b5b60208301915083600182028301111561062857610627610e46565b5b9250929050565b600082601f83011261064457610643610e37565b5b8135610654848260208601610555565b91505092915050565b60008083601f84011261067357610672610e37565b5b8235905067ffffffffffffffff8111156106905761068f610e32565b5b6020830191508360018202830111156106ac576106ab610e46565b5b9250929050565b600082601f8301126106c8576106c7610e37565b5b81356106d8848260208601610597565b91505092915050565b6000813590506106f081610e78565b92915050565b6000806020838503121561070d5761070c610e55565b5b600083013567ffffffffffffffff81111561072b5761072a610e50565b5b610737858286016105d9565b92509250509250929050565b60006020828403121561075957610758610e55565b5b600082013567ffffffffffffffff81111561077757610776610e50565b5b6107838482850161062f565b91505092915050565b600080602083850312156107a3576107a2610e55565b5b600083013567ffffffffffffffff8111156107c1576107c0610e50565b5b6107cd8582860161065d565b92509250509250929050565b6000602082840312156107ef576107ee610e55565b5b600082013567ffffffffffffffff81111561080d5761080c610e50565b5b610819848285016106b3565b91505092915050565b6000806040838503121561083957610838610e55565b5b6000610847858286016106e1565b925050602083013567ffffffffffffffff81111561086857610867610e50565b5b610874858286016106b3565b9150509250929050565b61088f61088a82610c1f565b610d17565b82525050565b60006108a082610aab565b6108aa8185610ac1565b93506108ba818560208601610c6a565b6108c381610e5a565b840191505092915050565b60006108d982610ab6565b6108e38185610ad2565b93506108f3818560208601610c6a565b6108fc81610e5a565b840191505092915050565b600061091282610ab6565b61091c8185610ae3565b935061092c818560208601610c6a565b80840191505092915050565b61094181610c51565b82525050565b61095861095382610c51565b610d3b565b82525050565b600061096a8284610907565b915081905092915050565b60006109818285610907565b915061098d8284610907565b91508190509392505050565b60006109a58285610947565b6020820191506109b5828461087e565b6014820191508190509392505050565b600060208201905081810360008301526109df8184610895565b905092915050565b60006020820190508181036000830152610a0181846108ce565b905092915050565b6000602082019050610a1e6000830184610938565b92915050565b6000610a2e610a3f565b9050610a3a8282610c9d565b919050565b6000604051905090565b600067ffffffffffffffff821115610a6457610a63610e03565b5b610a6d82610e5a565b9050602081019050919050565b600067ffffffffffffffff821115610a9557610a94610e03565b5b610a9e82610e5a565b9050602081019050919050565b600081519050919050565b600081519050919050565b600082825260208201905092915050565b600082825260208201905092915050565b600081905092915050565b60008085851115610b0257610b01610e41565b5b83861115610b1357610b12610e3c565b5b6001850283019150848603905094509492505050565b60008085851115610b3d57610b3c610e41565b5b83861115610b4e57610b4d610e3c565b5b6001850283019150848603905094509492505050565b6000610b6f82610c51565b9150610b7a83610c51565b9250827fffffffffffffffffffffffffffffffffffffffffffffffffffffffffffffffff03821115610baf57610bae610d76565b5b828201905092915050565b6000610bc582610c51565b9150610bd083610c51565b925082610be057610bdf610da5565b5b828204905092915050565b6000610bf682610c51565b9150610c0183610c51565b925082821015610c1457610c13610d76565b5b828203905092915050565b6000610c2a82610c31565b9050919050565b600073ffffffffffffffffffffffffffffffffffffffff82169050919050565b6000819050919050565b82818337600083830152505050565b60005b83811015610c88578082015181840152602081019050610c6d565b83811115610c97576000848401525b50505050565b610ca682610e5a565b810181811067ffffffffffffffff82111715610cc557610cc4610e03565b5b80604052505050565b6000610cd982610c51565b91507fffffffffffffffffffffffffffffffffffffffffffffffffffffffffffffffff821415610d0c57610d0b610d76565b5b600182019050919050565b6000610d2282610d29565b9050919050565b6000610d3482610e6b565b9050919050565b6000819050919050565b6000610d5082610c51565b9150610d5b83610c51565b925082610d6b57610d6a610da5565b5b828206905092915050565b7f4e487b7100000000000000000000000000000000000000000000000000000000600052601160045260246000fd5b7f4e487b7100000000000000000000000000000000000000000000000000000000600052601260045260246000fd5b7f4e487b7100000000000000000000000000000000000000000000000000000000600052603260045260246000fd5b7f4e487b7100000000000000000000000000000000000000000000000000000000600052604160045260246000fd5b600080fd5b600080fd5b600080fd5b600080fd5b600080fd5b600080fd5b600080fd5b600080fd5b6000601f19601f8301169050919050565b60008160601b9050919050565b610e8181610c51565b8114610e8c57600080fd5b5056fea26469706673582212204ac9c1adb62fe513f4a917075ec4fa3f244c7f8cdf40143c7b9c77d07fc9fffc64736f6c63430008070033",
			"opcodes": "PUSH1 0x80 PUSH1 0x40 MSTORE PUSH1 0x40 MLOAD DUP1 PUSH1 0x40 ADD PUSH1 0x40 MSTORE DUP1 PUSH1 0x1A DUP2 MSTORE PUSH1 0x20 ADD PUSH32 0x4142434445464748494A4B4C4D4E4F505152535455565758595A000000000000 DUP2 MSTORE POP PUSH1 0x0 SWAP1 DUP1 MLOAD SWAP1 PUSH1 0x20 ADD SWAP1 PUSH3 0x51 SWAP3 SWAP2 SWAP1 PUSH3 0x6B JUMP JUMPDEST POP PUSH1 0x1A PUSH1 0x1 SSTORE CALLVALUE DUP1 ISZERO PUSH3 0x64 JUMPI PUSH1 0x0 DUP1 REVERT JUMPDEST POP PUSH3 0x180 JUMP JUMPDEST DUP3 DUP1 SLOAD PUSH3 0x79 SWAP1 PUSH3 0x11B JUMP JUMPDEST SWAP1 PUSH1 0x0 MSTORE PUSH1 0x20 PUSH1 0x0 KECCAK256 SWAP1 PUSH1 0x1F ADD PUSH1 0x20 SWAP1 DIV DUP2 ADD SWAP3 DUP3 PUSH3 0x9D JUMPI PUSH1 0x0 DUP6 SSTORE PUSH3 0xE9 JUMP JUMPDEST DUP3 PUSH1 0x1F LT PUSH3 0xB8 JUMPI DUP1 MLOAD PUSH1 0xFF NOT AND DUP4 DUP1 ADD OR DUP6 SSTORE PUSH3 0xE9 JUMP JUMPDEST DUP3 DUP1 ADD PUSH1 0x1 ADD DUP6 SSTORE DUP3 ISZERO PUSH3 0xE9 JUMPI SWAP2 DUP3 ADD JUMPDEST DUP3 DUP2 GT ISZERO PUSH3 0xE8 JUMPI DUP3 MLOAD DUP3 SSTORE SWAP2 PUSH1 0x20 ADD SWAP2 SWAP1 PUSH1 0x1 ADD SWAP1 PUSH3 0xCB JUMP JUMPDEST JUMPDEST POP SWAP1 POP PUSH3 0xF8 SWAP2 SWAP1 PUSH3 0xFC JUMP JUMPDEST POP SWAP1 JUMP JUMPDEST JUMPDEST DUP1 DUP3 GT ISZERO PUSH3 0x117 JUMPI PUSH1 0x0 DUP2 PUSH1 0x0 SWAP1 SSTORE POP PUSH1 0x1 ADD PUSH3 0xFD JUMP JUMPDEST POP SWAP1 JUMP JUMPDEST PUSH1 0x0 PUSH1 0x2 DUP3 DIV SWAP1 POP PUSH1 0x1 DUP3 AND DUP1 PUSH3 0x134 JUMPI PUSH1 0x7F DUP3 AND SWAP2 POP JUMPDEST PUSH1 0x20 DUP3 LT DUP2 EQ ISZERO PUSH3 0x14B JUMPI PUSH3 0x14A PUSH3 0x151 JUMP JUMPDEST JUMPDEST POP SWAP2 SWAP1 POP JUMP JUMPDEST PUSH32 0x4E487B7100000000000000000000000000000000000000000000000000000000 PUSH1 0x0 MSTORE PUSH1 0x22 PUSH1 0x4 MSTORE PUSH1 0x24 PUSH1 0x0 REVERT JUMPDEST PUSH2 0xEC5 DUP1 PUSH3 0x190 PUSH1 0x0 CODECOPY PUSH1 0x0 RETURN INVALID PUSH1 0x80 PUSH1 0x40 MSTORE CALLVALUE DUP1 ISZERO PUSH2 0x10 JUMPI PUSH1 0x0 DUP1 REVERT JUMPDEST POP PUSH1 0x4 CALLDATASIZE LT PUSH2 0x7D JUMPI PUSH1 0x0 CALLDATALOAD PUSH1 0xE0 SHR DUP1 PUSH4 0x68119271 GT PUSH2 0x5B JUMPI DUP1 PUSH4 0x68119271 EQ PUSH2 0x112 JUMPI DUP1 PUSH4 0xA5998BFB EQ PUSH2 0x142 JUMPI DUP1 PUSH4 0xB745A3D8 EQ PUSH2 0x172 JUMPI DUP1 PUSH4 0xC5337ED4 EQ PUSH2 0x1A2 JUMPI PUSH2 0x7D JUMP JUMPDEST DUP1 PUSH4 0x22B8D044 EQ PUSH2 0x82 JUMPI DUP1 PUSH4 0x53BA1106 EQ PUSH2 0xB2 JUMPI DUP1 PUSH4 0x56E4024A EQ PUSH2 0xE2 JUMPI JUMPDEST PUSH1 0x0 DUP1 REVERT JUMPDEST PUSH2 0x9C PUSH1 0x4 DUP1 CALLDATASIZE SUB DUP2 ADD SWAP1 PUSH2 0x97 SWAP2 SWAP1 PUSH2 0x7D9 JUMP JUMPDEST PUSH2 0x1C0 JUMP JUMPDEST PUSH1 0x40 MLOAD PUSH2 0xA9 SWAP2 SWAP1 PUSH2 0xA09 JUMP JUMPDEST PUSH1 0x40 MLOAD DUP1 SWAP2 SUB SWAP1 RETURN JUMPDEST PUSH2 0xCC PUSH1 0x4 DUP1 CALLDATASIZE SUB DUP2 ADD SWAP1 PUSH2 0xC7 SWAP2 SWAP1 PUSH2 0x822 JUMP JUMPDEST PUSH2 0x1F3 JUMP JUMPDEST PUSH1 0x40 MLOAD PUSH2 0xD9 SWAP2 SWAP1 PUSH2 0x9E7 JUMP JUMPDEST PUSH1 0x40 MLOAD DUP1 SWAP2 SUB SWAP1 RETURN JUMPDEST PUSH2 0xFC PUSH1 0x4 DUP1 CALLDATASIZE SUB DUP2 ADD SWAP1 PUSH2 0xF7 SWAP2 SWAP1 PUSH2 0x6F6 JUMP JUMPDEST PUSH2 0x256 JUMP JUMPDEST PUSH1 0x40 MLOAD PUSH2 0x109 SWAP2 SWAP1 PUSH2 0xA09 JUMP JUMPDEST PUSH1 0x40 MLOAD DUP1 SWAP2 SUB SWAP1 RETURN JUMPDEST PUSH2 0x12C PUSH1 0x4 DUP1 CALLDATASIZE SUB DUP2 ADD SWAP1 PUSH2 0x127 SWAP2 SWAP1 PUSH2 0x743 JUMP JUMPDEST PUSH2 0x2C5 JUMP JUMPDEST PUSH1 0x40 MLOAD PUSH2 0x139 SWAP2 SWAP1 PUSH2 0x9E7 JUMP JUMPDEST PUSH1 0x40 MLOAD DUP1 SWAP2 SUB SWAP1 RETURN JUMPDEST PUSH2 0x15C PUSH1 0x4 DUP1 CALLDATASIZE SUB DUP2 ADD SWAP1 PUSH2 0x157 SWAP2 SWAP1 PUSH2 0x7D9 JUMP JUMPDEST PUSH2 0x2D5 JUMP JUMPDEST PUSH1 0x40 MLOAD PUSH2 0x169 SWAP2 SWAP1 PUSH2 0x9C5 JUMP JUMPDEST PUSH1 0x40 MLOAD DUP1 SWAP2 SUB SWAP1 RETURN JUMPDEST PUSH2 0x18C PUSH1 0x4 DUP1 CALLDATASIZE SUB DUP2 ADD SWAP1 PUSH2 0x187 SWAP2 SWAP1 PUSH2 0x78C JUMP JUMPDEST PUSH2 0x2E5 JUMP JUMPDEST PUSH1 0x40 MLOAD PUSH2 0x199 SWAP2 SWAP1 PUSH2 0xA09 JUMP JUMPDEST PUSH1 0x40 MLOAD DUP1 SWAP2 SUB SWAP1 RETURN JUMPDEST PUSH2 0x1AA PUSH2 0x3B0 JUMP JUMPDEST PUSH1 0x40 MLOAD PUSH2 0x1B7 SWAP2 SWAP1 PUSH2 0xA09 JUMP JUMPDEST PUSH1 0x40 MLOAD DUP1 SWAP2 SUB SWAP1 RETURN JUMPDEST PUSH1 0x0 DUP2 PUSH1 0x40 MLOAD PUSH1 0x20 ADD PUSH2 0x1D3 SWAP2 SWAP1 PUSH2 0x95E JUMP JUMPDEST PUSH1 0x40 MLOAD PUSH1 0x20 DUP2 DUP4 SUB SUB DUP2 MSTORE SWAP1 PUSH1 0x40 MSTORE DUP1 MLOAD SWAP1 PUSH1 0x20 ADD KECCAK256 PUSH1 0x0 SHR SWAP1 POP SWAP2 SWAP1 POP JUMP JUMPDEST PUSH1 0x60 PUSH1 0x0 PUSH2 0x229 DUP4 PUSH2 0x204 DUP7 PUSH2 0x3F4 JUMP JUMPDEST PUSH1 0x40 MLOAD PUSH1 0x20 ADD PUSH2 0x215 SWAP3 SWAP2 SWAP1 PUSH2 0x975 JUMP JUMPDEST PUSH1 0x40 MLOAD PUSH1 0x20 DUP2 DUP4 SUB SUB DUP2 MSTORE SWAP1 PUSH1 0x40 MSTORE PUSH2 0x1C0 JUMP JUMPDEST SWAP1 POP PUSH1 0x0 PUSH1 0x1 SLOAD DUP3 PUSH2 0x23B SWAP2 SWAP1 PUSH2 0xD45 JUMP JUMPDEST SWAP1 POP PUSH1 0x0 PUSH2 0x248 DUP3 PUSH2 0x3F4 JUMP JUMPDEST SWAP1 POP DUP1 SWAP4 POP POP POP POP SWAP3 SWAP2 POP POP JUMP JUMPDEST PUSH1 0x0 DUP1 DUP4 DUP4 PUSH1 0x0 SWAP1 PUSH1 0x1 SWAP3 PUSH2 0x26D SWAP4 SWAP3 SWAP2 SWAP1 PUSH2 0xAEE JUMP JUMPDEST DUP1 DUP1 PUSH1 0x1F ADD PUSH1 0x20 DUP1 SWAP2 DIV MUL PUSH1 0x20 ADD PUSH1 0x40 MLOAD SWAP1 DUP2 ADD PUSH1 0x40 MSTORE DUP1 SWAP4 SWAP3 SWAP2 SWAP1 DUP2 DUP2 MSTORE PUSH1 0x20 ADD DUP4 DUP4 DUP1 DUP3 DUP5 CALLDATACOPY PUSH1 0x0 DUP2 DUP5 ADD MSTORE PUSH1 0x1F NOT PUSH1 0x1F DUP3 ADD AND SWAP1 POP DUP1 DUP4 ADD SWAP3 POP POP POP POP POP POP POP SWAP1 POP PUSH1 0x0 DUP5 DUP5 SWAP1 POP SWAP1 POP DUP1 SWAP3 POP POP POP SWAP3 SWAP2 POP POP JUMP JUMPDEST PUSH1 0x60 PUSH1 0x0 DUP3 SWAP1 POP DUP1 SWAP2 POP POP SWAP2 SWAP1 POP JUMP JUMPDEST PUSH1 0x60 PUSH1 0x0 DUP3 SWAP1 POP DUP1 SWAP2 POP POP SWAP2 SWAP1 POP JUMP JUMPDEST PUSH1 0x0 DUP1 DUP4 DUP4 PUSH1 0x0 SWAP1 PUSH1 0x1 SWAP3 PUSH2 0x2FC SWAP4 SWAP3 SWAP2 SWAP1 PUSH2 0xB29 JUMP JUMPDEST DUP1 DUP1 PUSH1 0x1F ADD PUSH1 0x20 DUP1 SWAP2 DIV MUL PUSH1 0x20 ADD PUSH1 0x40 MLOAD SWAP1 DUP2 ADD PUSH1 0x40 MSTORE DUP1 SWAP4 SWAP3 SWAP2 SWAP1 DUP2 DUP2 MSTORE PUSH1 0x20 ADD DUP4 DUP4 DUP1 DUP3 DUP5 CALLDATACOPY PUSH1 0x0 DUP2 DUP5 ADD MSTORE PUSH1 0x1F NOT PUSH1 0x1F DUP3 ADD AND SWAP1 POP DUP1 DUP4 ADD SWAP3 POP POP POP POP POP POP POP SWAP1 POP PUSH1 0x0 DUP5 DUP5 PUSH1 0x1 SWAP1 PUSH1 0x2 SWAP3 PUSH2 0x357 SWAP4 SWAP3 SWAP2 SWAP1 PUSH2 0xB29 JUMP JUMPDEST DUP1 DUP1 PUSH1 0x1F ADD PUSH1 0x20 DUP1 SWAP2 DIV MUL PUSH1 0x20 ADD PUSH1 0x40 MLOAD SWAP1 DUP2 ADD PUSH1 0x40 MSTORE DUP1 SWAP4 SWAP3 SWAP2 SWAP1 DUP2 DUP2 MSTORE PUSH1 0x20 ADD DUP4 DUP4 DUP1 DUP3 DUP5 CALLDATACOPY PUSH1 0x0 DUP2 DUP5 ADD MSTORE PUSH1 0x1F NOT PUSH1 0x1F DUP3 ADD AND SWAP1 POP DUP1 DUP4 ADD SWAP3 POP POP POP POP POP POP POP SWAP1 POP PUSH1 0x0 DUP6 DUP6 SWAP1 POP SWAP1 POP DUP1 SWAP4 POP POP POP POP SWAP3 SWAP2 POP POP JUMP JUMPDEST PUSH1 0x0 DUP1 PUSH1 0x64 TIMESTAMP CALLER PUSH1 0x40 MLOAD PUSH1 0x20 ADD PUSH2 0x3C8 SWAP3 SWAP2 SWAP1 PUSH2 0x999 JUMP JUMPDEST PUSH1 0x40 MLOAD PUSH1 0x20 DUP2 DUP4 SUB SUB DUP2 MSTORE SWAP1 PUSH1 0x40 MSTORE DUP1 MLOAD SWAP1 PUSH1 0x20 ADD KECCAK256 PUSH1 0x0 SHR PUSH2 0x3EB SWAP2 SWAP1 PUSH2 0xD45 JUMP JUMPDEST SWAP1 POP DUP1 SWAP2 POP POP SWAP1 JUMP JUMPDEST PUSH1 0x60 PUSH1 0x0 DUP3 EQ ISZERO PUSH2 0x43C JUMPI PUSH1 0x40 MLOAD DUP1 PUSH1 0x40 ADD PUSH1 0x40 MSTORE DUP1 PUSH1 0x1 DUP2 MSTORE PUSH1 0x20 ADD PUSH32 0x3000000000000000000000000000000000000000000000000000000000000000 DUP2 MSTORE POP SWAP1 POP PUSH2 0x550 JUMP JUMPDEST PUSH1 0x0 DUP3 SWAP1 POP PUSH1 0x0 JUMPDEST PUSH1 0x0 DUP3 EQ PUSH2 0x46E JUMPI DUP1 DUP1 PUSH2 0x457 SWAP1 PUSH2 0xCCE JUMP JUMPDEST SWAP2 POP POP PUSH1 0xA DUP3 PUSH2 0x467 SWAP2 SWAP1 PUSH2 0xBBA JUMP JUMPDEST SWAP2 POP PUSH2 0x444 JUMP JUMPDEST PUSH1 0x0 DUP2 PUSH8 0xFFFFFFFFFFFFFFFF DUP2 GT ISZERO PUSH2 0x48A JUMPI PUSH2 0x489 PUSH2 0xE03 JUMP JUMPDEST JUMPDEST PUSH1 0x40 MLOAD SWAP1 DUP1 DUP3 MSTORE DUP1 PUSH1 0x1F ADD PUSH1 0x1F NOT AND PUSH1 0x20 ADD DUP3 ADD PUSH1 0x40 MSTORE DUP1 ISZERO PUSH2 0x4BC JUMPI DUP2 PUSH1 0x20 ADD PUSH1 0x1 DUP3 MUL DUP1 CALLDATASIZE DUP4 CALLDATACOPY DUP1 DUP3 ADD SWAP2 POP POP SWAP1 POP JUMPDEST POP SWAP1 POP JUMPDEST PUSH1 0x0 DUP6 EQ PUSH2 0x549 JUMPI PUSH1 0x1 DUP3 PUSH2 0x4D5 SWAP2 SWAP1 PUSH2 0xBEB JUMP JUMPDEST SWAP2 POP PUSH1 0xA DUP6 PUSH2 0x4E4 SWAP2 SWAP1 PUSH2 0xD45 JUMP JUMPDEST PUSH1 0x30 PUSH2 0x4F0 SWAP2 SWAP1 PUSH2 0xB64 JUMP JUMPDEST PUSH1 0xF8 SHL DUP2 DUP4 DUP2 MLOAD DUP2 LT PUSH2 0x506 JUMPI PUSH2 0x505 PUSH2 0xDD4 JUMP JUMPDEST JUMPDEST PUSH1 0x20 ADD ADD SWAP1 PUSH31 0xFFFFFFFFFFFFFFFFFFFFFFFFFFFFFFFFFFFFFFFFFFFFFFFFFFFFFFFFFFFFFF NOT AND SWAP1 DUP2 PUSH1 0x0 BYTE SWAP1 MSTORE8 POP PUSH1 0xA DUP6 PUSH2 0x542 SWAP2 SWAP1 PUSH2 0xBBA JUMP JUMPDEST SWAP5 POP PUSH2 0x4C0 JUMP JUMPDEST DUP1 SWAP4 POP POP POP POP JUMPDEST SWAP2 SWAP1 POP JUMP JUMPDEST PUSH1 0x0 PUSH2 0x568 PUSH2 0x563 DUP5 PUSH2 0xA49 JUMP JUMPDEST PUSH2 0xA24 JUMP JUMPDEST SWAP1 POP DUP3 DUP2 MSTORE PUSH1 0x20 DUP2 ADD DUP5 DUP5 DUP5 ADD GT ISZERO PUSH2 0x584 JUMPI PUSH2 0x583 PUSH2 0xE4B JUMP JUMPDEST JUMPDEST PUSH2 0x58F DUP5 DUP3 DUP6 PUSH2 0xC5B JUMP JUMPDEST POP SWAP4 SWAP3 POP POP POP JUMP JUMPDEST PUSH1 0x0 PUSH2 0x5AA PUSH2 0x5A5 DUP5 PUSH2 0xA7A JUMP JUMPDEST PUSH2 0xA24 JUMP JUMPDEST SWAP1 POP DUP3 DUP2 MSTORE PUSH1 0x20 DUP2 ADD DUP5 DUP5 DUP5 ADD GT ISZERO PUSH2 0x5C6 JUMPI PUSH2 0x5C5 PUSH2 0xE4B JUMP JUMPDEST JUMPDEST PUSH2 0x5D1 DUP5 DUP3 DUP6 PUSH2 0xC5B JUMP JUMPDEST POP SWAP4 SWAP3 POP POP POP JUMP JUMPDEST PUSH1 0x0 DUP1 DUP4 PUSH1 0x1F DUP5 ADD SLT PUSH2 0x5EF JUMPI PUSH2 0x5EE PUSH2 0xE37 JUMP JUMPDEST JUMPDEST DUP3 CALLDATALOAD SWAP1 POP PUSH8 0xFFFFFFFFFFFFFFFF DUP2 GT ISZERO PUSH2 0x60C JUMPI PUSH2 0x60B PUSH2 0xE32 JUMP JUMPDEST JUMPDEST PUSH1 0x20 DUP4 ADD SWAP2 POP DUP4 PUSH1 0x1 DUP3 MUL DUP4 ADD GT ISZERO PUSH2 0x628 JUMPI PUSH2 0x627 PUSH2 0xE46 JUMP JUMPDEST JUMPDEST SWAP3 POP SWAP3 SWAP1 POP JUMP JUMPDEST PUSH1 0x0 DUP3 PUSH1 0x1F DUP4 ADD SLT PUSH2 0x644 JUMPI PUSH2 0x643 PUSH2 0xE37 JUMP JUMPDEST JUMPDEST DUP2 CALLDATALOAD PUSH2 0x654 DUP5 DUP3 PUSH1 0x20 DUP7 ADD PUSH2 0x555 JUMP JUMPDEST SWAP2 POP POP SWAP3 SWAP2 POP POP JUMP JUMPDEST PUSH1 0x0 DUP1 DUP4 PUSH1 0x1F DUP5 ADD SLT PUSH2 0x673 JUMPI PUSH2 0x672 PUSH2 0xE37 JUMP JUMPDEST JUMPDEST DUP3 CALLDATALOAD SWAP1 POP PUSH8 0xFFFFFFFFFFFFFFFF DUP2 GT ISZERO PUSH2 0x690 JUMPI PUSH2 0x68F PUSH2 0xE32 JUMP JUMPDEST JUMPDEST PUSH1 0x20 DUP4 ADD SWAP2 POP DUP4 PUSH1 0x1 DUP3 MUL DUP4 ADD GT ISZERO PUSH2 0x6AC JUMPI PUSH2 0x6AB PUSH2 0xE46 JUMP JUMPDEST JUMPDEST SWAP3 POP SWAP3 SWAP1 POP JUMP JUMPDEST PUSH1 0x0 DUP3 PUSH1 0x1F DUP4 ADD SLT PUSH2 0x6C8 JUMPI PUSH2 0x6C7 PUSH2 0xE37 JUMP JUMPDEST JUMPDEST DUP2 CALLDATALOAD PUSH2 0x6D8 DUP5 DUP3 PUSH1 0x20 DUP7 ADD PUSH2 0x597 JUMP JUMPDEST SWAP2 POP POP SWAP3 SWAP2 POP POP JUMP JUMPDEST PUSH1 0x0 DUP2 CALLDATALOAD SWAP1 POP PUSH2 0x6F0 DUP2 PUSH2 0xE78 JUMP JUMPDEST SWAP3 SWAP2 POP POP JUMP JUMPDEST PUSH1 0x0 DUP1 PUSH1 0x20 DUP4 DUP6 SUB SLT ISZERO PUSH2 0x70D JUMPI PUSH2 0x70C PUSH2 0xE55 JUMP JUMPDEST JUMPDEST PUSH1 0x0 DUP4 ADD CALLDATALOAD PUSH8 0xFFFFFFFFFFFFFFFF DUP2 GT ISZERO PUSH2 0x72B JUMPI PUSH2 0x72A PUSH2 0xE50 JUMP JUMPDEST JUMPDEST PUSH2 0x737 DUP6 DUP3 DUP7 ADD PUSH2 0x5D9 JUMP JUMPDEST SWAP3 POP SWAP3 POP POP SWAP3 POP SWAP3 SWAP1 POP JUMP JUMPDEST PUSH1 0x0 PUSH1 0x20 DUP3 DUP5 SUB SLT ISZERO PUSH2 0x759 JUMPI PUSH2 0x758 PUSH2 0xE55 JUMP JUMPDEST JUMPDEST PUSH1 0x0 DUP3 ADD CALLDATALOAD PUSH8 0xFFFFFFFFFFFFFFFF DUP2 GT ISZERO PUSH2 0x777 JUMPI PUSH2 0x776 PUSH2 0xE50 JUMP JUMPDEST JUMPDEST PUSH2 0x783 DUP5 DUP3 DUP6 ADD PUSH2 0x62F JUMP JUMPDEST SWAP2 POP POP SWAP3 SWAP2 POP POP JUMP JUMPDEST PUSH1 0x0 DUP1 PUSH1 0x20 DUP4 DUP6 SUB SLT ISZERO PUSH2 0x7A3 JUMPI PUSH2 0x7A2 PUSH2 0xE55 JUMP JUMPDEST JUMPDEST PUSH1 0x0 DUP4 ADD CALLDATALOAD PUSH8 0xFFFFFFFFFFFFFFFF DUP2 GT ISZERO PUSH2 0x7C1 JUMPI PUSH2 0x7C0 PUSH2 0xE50 JUMP JUMPDEST JUMPDEST PUSH2 0x7CD DUP6 DUP3 DUP7 ADD PUSH2 0x65D JUMP JUMPDEST SWAP3 POP SWAP3 POP POP SWAP3 POP SWAP3 SWAP1 POP JUMP JUMPDEST PUSH1 0x0 PUSH1 0x20 DUP3 DUP5 SUB SLT ISZERO PUSH2 0x7EF JUMPI PUSH2 0x7EE PUSH2 0xE55 JUMP JUMPDEST JUMPDEST PUSH1 0x0 DUP3 ADD CALLDATALOAD PUSH8 0xFFFFFFFFFFFFFFFF DUP2 GT ISZERO PUSH2 0x80D JUMPI PUSH2 0x80C PUSH2 0xE50 JUMP JUMPDEST JUMPDEST PUSH2 0x819 DUP5 DUP3 DUP6 ADD PUSH2 0x6B3 JUMP JUMPDEST SWAP2 POP POP SWAP3 SWAP2 POP POP JUMP JUMPDEST PUSH1 0x0 DUP1 PUSH1 0x40 DUP4 DUP6 SUB SLT ISZERO PUSH2 0x839 JUMPI PUSH2 0x838 PUSH2 0xE55 JUMP JUMPDEST JUMPDEST PUSH1 0x0 PUSH2 0x847 DUP6 DUP3 DUP7 ADD PUSH2 0x6E1 JUMP JUMPDEST SWAP3 POP POP PUSH1 0x20 DUP4 ADD CALLDATALOAD PUSH8 0xFFFFFFFFFFFFFFFF DUP2 GT ISZERO PUSH2 0x868 JUMPI PUSH2 0x867 PUSH2 0xE50 JUMP JUMPDEST JUMPDEST PUSH2 0x874 DUP6 DUP3 DUP7 ADD PUSH2 0x6B3 JUMP JUMPDEST SWAP2 POP POP SWAP3 POP SWAP3 SWAP1 POP JUMP JUMPDEST PUSH2 0x88F PUSH2 0x88A DUP3 PUSH2 0xC1F JUMP JUMPDEST PUSH2 0xD17 JUMP JUMPDEST DUP3 MSTORE POP POP JUMP JUMPDEST PUSH1 0x0 PUSH2 0x8A0 DUP3 PUSH2 0xAAB JUMP JUMPDEST PUSH2 0x8AA DUP2 DUP6 PUSH2 0xAC1 JUMP JUMPDEST SWAP4 POP PUSH2 0x8BA DUP2 DUP6 PUSH1 0x20 DUP7 ADD PUSH2 0xC6A JUMP JUMPDEST PUSH2 0x8C3 DUP2 PUSH2 0xE5A JUMP JUMPDEST DUP5 ADD SWAP2 POP POP SWAP3 SWAP2 POP POP JUMP JUMPDEST PUSH1 0x0 PUSH2 0x8D9 DUP3 PUSH2 0xAB6 JUMP JUMPDEST PUSH2 0x8E3 DUP2 DUP6 PUSH2 0xAD2 JUMP JUMPDEST SWAP4 POP PUSH2 0x8F3 DUP2 DUP6 PUSH1 0x20 DUP7 ADD PUSH2 0xC6A JUMP JUMPDEST PUSH2 0x8FC DUP2 PUSH2 0xE5A JUMP JUMPDEST DUP5 ADD SWAP2 POP POP SWAP3 SWAP2 POP POP JUMP JUMPDEST PUSH1 0x0 PUSH2 0x912 DUP3 PUSH2 0xAB6 JUMP JUMPDEST PUSH2 0x91C DUP2 DUP6 PUSH2 0xAE3 JUMP JUMPDEST SWAP4 POP PUSH2 0x92C DUP2 DUP6 PUSH1 0x20 DUP7 ADD PUSH2 0xC6A JUMP JUMPDEST DUP1 DUP5 ADD SWAP2 POP POP SWAP3 SWAP2 POP POP JUMP JUMPDEST PUSH2 0x941 DUP2 PUSH2 0xC51 JUMP JUMPDEST DUP3 MSTORE POP POP JUMP JUMPDEST PUSH2 0x958 PUSH2 0x953 DUP3 PUSH2 0xC51 JUMP JUMPDEST PUSH2 0xD3B JUMP JUMPDEST DUP3 MSTORE POP POP JUMP JUMPDEST PUSH1 0x0 PUSH2 0x96A DUP3 DUP5 PUSH2 0x907 JUMP JUMPDEST SWAP2 POP DUP2 SWAP1 POP SWAP3 SWAP2 POP POP JUMP JUMPDEST PUSH1 0x0 PUSH2 0x981 DUP3 DUP6 PUSH2 0x907 JUMP JUMPDEST SWAP2 POP PUSH2 0x98D DUP3 DUP5 PUSH2 0x907 JUMP JUMPDEST SWAP2 POP DUP2 SWAP1 POP SWAP4 SWAP3 POP POP POP JUMP JUMPDEST PUSH1 0x0 PUSH2 0x9A5 DUP3 DUP6 PUSH2 0x947 JUMP JUMPDEST PUSH1 0x20 DUP3 ADD SWAP2 POP PUSH2 0x9B5 DUP3 DUP5 PUSH2 0x87E JUMP JUMPDEST PUSH1 0x14 DUP3 ADD SWAP2 POP DUP2 SWAP1 POP SWAP4 SWAP3 POP POP POP JUMP JUMPDEST PUSH1 0x0 PUSH1 0x20 DUP3 ADD SWAP1 POP DUP2 DUP2 SUB PUSH1 0x0 DUP4 ADD MSTORE PUSH2 0x9DF DUP2 DUP5 PUSH2 0x895 JUMP JUMPDEST SWAP1 POP SWAP3 SWAP2 POP POP JUMP JUMPDEST PUSH1 0x0 PUSH1 0x20 DUP3 ADD SWAP1 POP DUP2 DUP2 SUB PUSH1 0x0 DUP4 ADD MSTORE PUSH2 0xA01 DUP2 DUP5 PUSH2 0x8CE JUMP JUMPDEST SWAP1 POP SWAP3 SWAP2 POP POP JUMP JUMPDEST PUSH1 0x0 PUSH1 0x20 DUP3 ADD SWAP1 POP PUSH2 0xA1E PUSH1 0x0 DUP4 ADD DUP5 PUSH2 0x938 JUMP JUMPDEST SWAP3 SWAP2 POP POP JUMP JUMPDEST PUSH1 0x0 PUSH2 0xA2E PUSH2 0xA3F JUMP JUMPDEST SWAP1 POP PUSH2 0xA3A DUP3 DUP3 PUSH2 0xC9D JUMP JUMPDEST SWAP2 SWAP1 POP JUMP JUMPDEST PUSH1 0x0 PUSH1 0x40 MLOAD SWAP1 POP SWAP1 JUMP JUMPDEST PUSH1 0x0 PUSH8 0xFFFFFFFFFFFFFFFF DUP3 GT ISZERO PUSH2 0xA64 JUMPI PUSH2 0xA63 PUSH2 0xE03 JUMP JUMPDEST JUMPDEST PUSH2 0xA6D DUP3 PUSH2 0xE5A JUMP JUMPDEST SWAP1 POP PUSH1 0x20 DUP2 ADD SWAP1 POP SWAP2 SWAP1 POP JUMP JUMPDEST PUSH1 0x0 PUSH8 0xFFFFFFFFFFFFFFFF DUP3 GT ISZERO PUSH2 0xA95 JUMPI PUSH2 0xA94 PUSH2 0xE03 JUMP JUMPDEST JUMPDEST PUSH2 0xA9E DUP3 PUSH2 0xE5A JUMP JUMPDEST SWAP1 POP PUSH1 0x20 DUP2 ADD SWAP1 POP SWAP2 SWAP1 POP JUMP JUMPDEST PUSH1 0x0 DUP2 MLOAD SWAP1 POP SWAP2 SWAP1 POP JUMP JUMPDEST PUSH1 0x0 DUP2 MLOAD SWAP1 POP SWAP2 SWAP1 POP JUMP JUMPDEST PUSH1 0x0 DUP3 DUP3 MSTORE PUSH1 0x20 DUP3 ADD SWAP1 POP SWAP3 SWAP2 POP POP JUMP JUMPDEST PUSH1 0x0 DUP3 DUP3 MSTORE PUSH1 0x20 DUP3 ADD SWAP1 POP SWAP3 SWAP2 POP POP JUMP JUMPDEST PUSH1 0x0 DUP2 SWAP1 POP SWAP3 SWAP2 POP POP JUMP JUMPDEST PUSH1 0x0 DUP1 DUP6 DUP6 GT ISZERO PUSH2 0xB02 JUMPI PUSH2 0xB01 PUSH2 0xE41 JUMP JUMPDEST JUMPDEST DUP4 DUP7 GT ISZERO PUSH2 0xB13 JUMPI PUSH2 0xB12 PUSH2 0xE3C JUMP JUMPDEST JUMPDEST PUSH1 0x1 DUP6 MUL DUP4 ADD SWAP2 POP DUP5 DUP7 SUB SWAP1 POP SWAP5 POP SWAP5 SWAP3 POP POP POP JUMP JUMPDEST PUSH1 0x0 DUP1 DUP6 DUP6 GT ISZERO PUSH2 0xB3D JUMPI PUSH2 0xB3C PUSH2 0xE41 JUMP JUMPDEST JUMPDEST DUP4 DUP7 GT ISZERO PUSH2 0xB4E JUMPI PUSH2 0xB4D PUSH2 0xE3C JUMP JUMPDEST JUMPDEST PUSH1 0x1 DUP6 MUL DUP4 ADD SWAP2 POP DUP5 DUP7 SUB SWAP1 POP SWAP5 POP SWAP5 SWAP3 POP POP POP JUMP JUMPDEST PUSH1 0x0 PUSH2 0xB6F DUP3 PUSH2 0xC51 JUMP JUMPDEST SWAP2 POP PUSH2 0xB7A DUP4 PUSH2 0xC51 JUMP JUMPDEST SWAP3 POP DUP3 PUSH32 0xFFFFFFFFFFFFFFFFFFFFFFFFFFFFFFFFFFFFFFFFFFFFFFFFFFFFFFFFFFFFFFFF SUB DUP3 GT ISZERO PUSH2 0xBAF JUMPI PUSH2 0xBAE PUSH2 0xD76 JUMP JUMPDEST JUMPDEST DUP3 DUP3 ADD SWAP1 POP SWAP3 SWAP2 POP POP JUMP JUMPDEST PUSH1 0x0 PUSH2 0xBC5 DUP3 PUSH2 0xC51 JUMP JUMPDEST SWAP2 POP PUSH2 0xBD0 DUP4 PUSH2 0xC51 JUMP JUMPDEST SWAP3 POP DUP3 PUSH2 0xBE0 JUMPI PUSH2 0xBDF PUSH2 0xDA5 JUMP JUMPDEST JUMPDEST DUP3 DUP3 DIV SWAP1 POP SWAP3 SWAP2 POP POP JUMP JUMPDEST PUSH1 0x0 PUSH2 0xBF6 DUP3 PUSH2 0xC51 JUMP JUMPDEST SWAP2 POP PUSH2 0xC01 DUP4 PUSH2 0xC51 JUMP JUMPDEST SWAP3 POP DUP3 DUP3 LT ISZERO PUSH2 0xC14 JUMPI PUSH2 0xC13 PUSH2 0xD76 JUMP JUMPDEST JUMPDEST DUP3 DUP3 SUB SWAP1 POP SWAP3 SWAP2 POP POP JUMP JUMPDEST PUSH1 0x0 PUSH2 0xC2A DUP3 PUSH2 0xC31 JUMP JUMPDEST SWAP1 POP SWAP2 SWAP1 POP JUMP JUMPDEST PUSH1 0x0 PUSH20 0xFFFFFFFFFFFFFFFFFFFFFFFFFFFFFFFFFFFFFFFF DUP3 AND SWAP1 POP SWAP2 SWAP1 POP JUMP JUMPDEST PUSH1 0x0 DUP2 SWAP1 POP SWAP2 SWAP1 POP JUMP JUMPDEST DUP3 DUP2 DUP4 CALLDATACOPY PUSH1 0x0 DUP4 DUP4 ADD MSTORE POP POP POP JUMP JUMPDEST PUSH1 0x0 JUMPDEST DUP4 DUP2 LT ISZERO PUSH2 0xC88 JUMPI DUP1 DUP3 ADD MLOAD DUP2 DUP5 ADD MSTORE PUSH1 0x20 DUP2 ADD SWAP1 POP PUSH2 0xC6D JUMP JUMPDEST DUP4 DUP2 GT ISZERO PUSH2 0xC97 JUMPI PUSH1 0x0 DUP5 DUP5 ADD MSTORE JUMPDEST POP POP POP POP JUMP JUMPDEST PUSH2 0xCA6 DUP3 PUSH2 0xE5A JUMP JUMPDEST DUP2 ADD DUP2 DUP2 LT PUSH8 0xFFFFFFFFFFFFFFFF DUP3 GT OR ISZERO PUSH2 0xCC5 JUMPI PUSH2 0xCC4 PUSH2 0xE03 JUMP JUMPDEST JUMPDEST DUP1 PUSH1 0x40 MSTORE POP POP POP JUMP JUMPDEST PUSH1 0x0 PUSH2 0xCD9 DUP3 PUSH2 0xC51 JUMP JUMPDEST SWAP2 POP PUSH32 0xFFFFFFFFFFFFFFFFFFFFFFFFFFFFFFFFFFFFFFFFFFFFFFFFFFFFFFFFFFFFFFFF DUP3 EQ ISZERO PUSH2 0xD0C JUMPI PUSH2 0xD0B PUSH2 0xD76 JUMP JUMPDEST JUMPDEST PUSH1 0x1 DUP3 ADD SWAP1 POP SWAP2 SWAP1 POP JUMP JUMPDEST PUSH1 0x0 PUSH2 0xD22 DUP3 PUSH2 0xD29 JUMP JUMPDEST SWAP1 POP SWAP2 SWAP1 POP JUMP JUMPDEST PUSH1 0x0 PUSH2 0xD34 DUP3 PUSH2 0xE6B JUMP JUMPDEST SWAP1 POP SWAP2 SWAP1 POP JUMP JUMPDEST PUSH1 0x0 DUP2 SWAP1 POP SWAP2 SWAP1 POP JUMP JUMPDEST PUSH1 0x0 PUSH2 0xD50 DUP3 PUSH2 0xC51 JUMP JUMPDEST SWAP2 POP PUSH2 0xD5B DUP4 PUSH2 0xC51 JUMP JUMPDEST SWAP3 POP DUP3 PUSH2 0xD6B JUMPI PUSH2 0xD6A PUSH2 0xDA5 JUMP JUMPDEST JUMPDEST DUP3 DUP3 MOD SWAP1 POP SWAP3 SWAP2 POP POP JUMP JUMPDEST PUSH32 0x4E487B7100000000000000000000000000000000000000000000000000000000 PUSH1 0x0 MSTORE PUSH1 0x11 PUSH1 0x4 MSTORE PUSH1 0x24 PUSH1 0x0 REVERT JUMPDEST PUSH32 0x4E487B7100000000000000000000000000000000000000000000000000000000 PUSH1 0x0 MSTORE PUSH1 0x12 PUSH1 0x4 MSTORE PUSH1 0x24 PUSH1 0x0 REVERT JUMPDEST PUSH32 0x4E487B7100000000000000000000000000000000000000000000000000000000 PUSH1 0x0 MSTORE PUSH1 0x32 PUSH1 0x4 MSTORE PUSH1 0x24 PUSH1 0x0 REVERT JUMPDEST PUSH32 0x4E487B7100000000000000000000000000000000000000000000000000000000 PUSH1 0x0 MSTORE PUSH1 0x41 PUSH1 0x4 MSTORE PUSH1 0x24 PUSH1 0x0 REVERT JUMPDEST PUSH1 0x0 DUP1 REVERT JUMPDEST PUSH1 0x0 DUP1 REVERT JUMPDEST PUSH1 0x0 DUP1 REVERT JUMPDEST PUSH1 0x0 DUP1 REVERT JUMPDEST PUSH1 0x0 DUP1 REVERT JUMPDEST PUSH1 0x0 DUP1 REVERT JUMPDEST PUSH1 0x0 DUP1 REVERT JUMPDEST PUSH1 0x0 DUP1 REVERT JUMPDEST PUSH1 0x0 PUSH1 0x1F NOT PUSH1 0x1F DUP4 ADD AND SWAP1 POP SWAP2 SWAP1 POP JUMP JUMPDEST PUSH1 0x0 DUP2 PUSH1 0x60 SHL SWAP1 POP SWAP2 SWAP1 POP JUMP JUMPDEST PUSH2 0xE81 DUP2 PUSH2 0xC51 JUMP JUMPDEST DUP2 EQ PUSH2 0xE8C JUMPI PUSH1 0x0 DUP1 REVERT JUMPDEST POP JUMP INVALID LOG2 PUSH5 0x6970667358 0x22 SLT KECCAK256 0x4A 0xC9 0xC1 0xAD 0xB6 0x2F 0xE5 SGT DELEGATECALL 0xA9 OR SMOD 0x5E 0xC4 STATICCALL EXTCODEHASH 0x24 0x4C PUSH32 0x8CDF40143C7B9C77D07FC9FFFC64736F6C634300080700330000000000000000 "
		},
		"gasEstimates": {
			"creation": {
				"codeDepositCost": "756200",
				"executionCost": "infinite",
				"totalCost": "infinite"
			},
			"external": {
				"bytes2string(bytes)": "infinite",
				"pluck(uint256,string)": "infinite",
				"random(string)": "infinite",
				"random2()": "infinite",
				"slice(bytes)": "infinite",
				"slice2(string)": "infinite",
				"viewer(string)": "infinite"
			},
			"internal": {
				"toString(uint256)": "infinite"
			}
		},
		"methodIdentifiers": {
			"bytes2string(bytes)": "68119271",
			"pluck(uint256,string)": "53ba1106",
			"random(string)": "22b8d044",
			"random2()": "c5337ed4",
			"slice(bytes)": "56e4024a",
			"slice2(string)": "b745a3d8",
			"viewer(string)": "a5998bfb"
		}
	},
	"abi": [
		{
			"inputs": [
				{
					"internalType": "bytes",
					"name": "input",
					"type": "bytes"
				}
			],
			"name": "bytes2string",
			"outputs": [
				{
					"internalType": "string",
					"name": "",
					"type": "string"
				}
			],
			"stateMutability": "view",
			"type": "function"
		},
		{
			"inputs": [
				{
					"internalType": "uint256",
					"name": "tokenId",
					"type": "uint256"
				},
				{
					"internalType": "string",
					"name": "keyPrefix",
					"type": "string"
				}
			],
			"name": "pluck",
			"outputs": [
				{
					"internalType": "string",
					"name": "",
					"type": "string"
				}
			],
			"stateMutability": "view",
			"type": "function"
		},
		{
			"inputs": [
				{
					"internalType": "string",
					"name": "input",
					"type": "string"
				}
			],
			"name": "random",
			"outputs": [
				{
					"internalType": "uint256",
					"name": "",
					"type": "uint256"
				}
			],
			"stateMutability": "pure",
			"type": "function"
		},
		{
			"inputs": [],
			"name": "random2",
			"outputs": [
				{
					"internalType": "uint256",
					"name": "",
					"type": "uint256"
				}
			],
			"stateMutability": "nonpayable",
			"type": "function"
		},
		{
			"inputs": [
				{
					"internalType": "bytes",
					"name": "_input",
					"type": "bytes"
				}
			],
			"name": "slice",
			"outputs": [
				{
					"internalType": "uint256",
					"name": "",
					"type": "uint256"
				}
			],
			"stateMutability": "pure",
			"type": "function"
		},
		{
			"inputs": [
				{
					"internalType": "string",
					"name": "_input",
					"type": "string"
				}
			],
			"name": "slice2",
			"outputs": [
				{
					"internalType": "uint256",
					"name": "",
					"type": "uint256"
				}
			],
			"stateMutability": "pure",
			"type": "function"
		},
		{
			"inputs": [
				{
					"internalType": "string",
					"name": "input",
					"type": "string"
				}
			],
			"name": "viewer",
			"outputs": [
				{
					"internalType": "bytes",
					"name": "",
					"type": "bytes"
				}
			],
			"stateMutability": "view",
			"type": "function"
		}
	]
}